{
  "_format": "hh-sol-artifact-1",
  "contractName": "NFTFLOW",
  "sourceName": "contracts/NFTflow.sol",
  "abi": [
    {
      "inputs": [],
      "stateMutability": "nonpayable",
      "type": "constructor"
    },
    {
      "anonymous": false,
      "inputs": [
        {
          "indexed": true,
          "internalType": "address",
          "name": "owner",
          "type": "address"
        },
        {
          "indexed": true,
          "internalType": "address",
          "name": "approved",
          "type": "address"
        },
        {
          "indexed": true,
          "internalType": "uint256",
          "name": "tokenId",
          "type": "uint256"
        }
      ],
      "name": "Approval",
      "type": "event"
    },
    {
      "anonymous": false,
      "inputs": [
        {
          "indexed": true,
          "internalType": "address",
          "name": "owner",
          "type": "address"
        },
        {
          "indexed": true,
          "internalType": "address",
          "name": "operator",
          "type": "address"
        },
        {
          "indexed": false,
          "internalType": "bool",
          "name": "approved",
          "type": "bool"
        }
      ],
      "name": "ApprovalForAll",
      "type": "event"
    },
    {
      "anonymous": false,
      "inputs": [
        {
          "indexed": false,
          "internalType": "uint256",
          "name": "tokenId",
          "type": "uint256"
        },
        {
          "indexed": false,
          "internalType": "address",
          "name": "owner",
          "type": "address"
        }
      ],
      "name": "NFTMinted",
      "type": "event"
    },
    {
      "anonymous": false,
      "inputs": [
        {
          "indexed": true,
          "internalType": "address",
          "name": "previousOwner",
          "type": "address"
        },
        {
          "indexed": true,
          "internalType": "address",
          "name": "newOwner",
          "type": "address"
        }
      ],
      "name": "OwnershipTransferred",
      "type": "event"
    },
    {
      "anonymous": false,
      "inputs": [
        {
          "indexed": true,
          "internalType": "address",
          "name": "from",
          "type": "address"
        },
        {
          "indexed": true,
          "internalType": "address",
          "name": "to",
          "type": "address"
        },
        {
          "indexed": true,
          "internalType": "uint256",
          "name": "tokenId",
          "type": "uint256"
        }
      ],
      "name": "Transfer",
      "type": "event"
    },
    {
      "inputs": [],
      "name": "MAX_TOKENS",
      "outputs": [
        {
          "internalType": "uint256",
          "name": "",
          "type": "uint256"
        }
      ],
      "stateMutability": "view",
      "type": "function"
    },
    {
      "inputs": [
        {
          "internalType": "address",
          "name": "to",
          "type": "address"
        },
        {
          "internalType": "uint256",
          "name": "tokenId",
          "type": "uint256"
        }
      ],
      "name": "approve",
      "outputs": [],
      "stateMutability": "nonpayable",
      "type": "function"
    },
    {
      "inputs": [
        {
          "internalType": "address",
          "name": "owner",
          "type": "address"
        }
      ],
      "name": "balanceOf",
      "outputs": [
        {
          "internalType": "uint256",
          "name": "",
          "type": "uint256"
        }
      ],
      "stateMutability": "view",
      "type": "function"
    },
    {
      "inputs": [],
      "name": "baseURI",
      "outputs": [
        {
          "internalType": "string",
          "name": "",
          "type": "string"
        }
      ],
      "stateMutability": "view",
      "type": "function"
    },
    {
      "inputs": [
        {
          "internalType": "uint256",
          "name": "tokenId",
          "type": "uint256"
        }
      ],
      "name": "getApproved",
      "outputs": [
        {
          "internalType": "address",
          "name": "",
          "type": "address"
        }
      ],
      "stateMutability": "view",
      "type": "function"
    },
    {
      "inputs": [],
      "name": "getTokensMinted",
      "outputs": [
        {
          "internalType": "uint256",
          "name": "",
          "type": "uint256"
        }
      ],
      "stateMutability": "view",
      "type": "function"
    },
    {
      "inputs": [
        {
          "internalType": "address",
          "name": "owner",
          "type": "address"
        },
        {
          "internalType": "address",
          "name": "operator",
          "type": "address"
        }
      ],
      "name": "isApprovedForAll",
      "outputs": [
        {
          "internalType": "bool",
          "name": "",
          "type": "bool"
        }
      ],
      "stateMutability": "view",
      "type": "function"
    },
    {
      "inputs": [],
      "name": "maxTokenPurchase",
      "outputs": [
        {
          "internalType": "uint256",
          "name": "",
          "type": "uint256"
        }
      ],
      "stateMutability": "view",
      "type": "function"
    },
    {
      "inputs": [],
      "name": "mintNFT",
      "outputs": [],
      "stateMutability": "payable",
      "type": "function"
    },
    {
      "inputs": [],
      "name": "mintNFTEth",
      "outputs": [],
      "stateMutability": "payable",
      "type": "function"
    },
    {
      "inputs": [
        {
          "internalType": "address",
          "name": "receiver",
          "type": "address"
        },
        {
          "internalType": "uint256",
          "name": "numberOfTokens",
          "type": "uint256"
        }
      ],
      "name": "mintTo",
      "outputs": [],
      "stateMutability": "nonpayable",
      "type": "function"
    },
    {
      "inputs": [],
      "name": "name",
      "outputs": [
        {
          "internalType": "string",
          "name": "",
          "type": "string"
        }
      ],
      "stateMutability": "view",
      "type": "function"
    },
    {
      "inputs": [],
      "name": "owner",
      "outputs": [
        {
          "internalType": "address",
          "name": "",
          "type": "address"
        }
      ],
      "stateMutability": "view",
      "type": "function"
    },
    {
      "inputs": [
        {
          "internalType": "uint256",
          "name": "tokenId",
          "type": "uint256"
        }
      ],
      "name": "ownerOf",
      "outputs": [
        {
          "internalType": "address",
          "name": "",
          "type": "address"
        }
      ],
      "stateMutability": "view",
      "type": "function"
    },
    {
      "inputs": [],
      "name": "renounceOwnership",
      "outputs": [],
      "stateMutability": "nonpayable",
      "type": "function"
    },
    {
      "inputs": [
        {
          "internalType": "address",
          "name": "from",
          "type": "address"
        },
        {
          "internalType": "address",
          "name": "to",
          "type": "address"
        },
        {
          "internalType": "uint256",
          "name": "tokenId",
          "type": "uint256"
        }
      ],
      "name": "safeTransferFrom",
      "outputs": [],
      "stateMutability": "nonpayable",
      "type": "function"
    },
    {
      "inputs": [
        {
          "internalType": "address",
          "name": "from",
          "type": "address"
        },
        {
          "internalType": "address",
          "name": "to",
          "type": "address"
        },
        {
          "internalType": "uint256",
          "name": "tokenId",
          "type": "uint256"
        },
        {
          "internalType": "bytes",
          "name": "_data",
          "type": "bytes"
        }
      ],
      "name": "safeTransferFrom",
      "outputs": [],
      "stateMutability": "nonpayable",
      "type": "function"
    },
    {
      "inputs": [],
      "name": "saleIsActive",
      "outputs": [
        {
          "internalType": "bool",
          "name": "",
          "type": "bool"
        }
      ],
      "stateMutability": "view",
      "type": "function"
    },
    {
      "inputs": [
        {
          "internalType": "address",
          "name": "operator",
          "type": "address"
        },
        {
          "internalType": "bool",
          "name": "approved",
          "type": "bool"
        }
      ],
      "name": "setApprovalForAll",
      "outputs": [],
      "stateMutability": "nonpayable",
      "type": "function"
    },
    {
      "inputs": [
        {
          "internalType": "string",
          "name": "_newBaseURI",
          "type": "string"
        }
      ],
      "name": "setBaseURI",
      "outputs": [],
      "stateMutability": "nonpayable",
      "type": "function"
    },
    {
      "inputs": [
        {
          "internalType": "uint256",
          "name": "purchaseNumber",
          "type": "uint256"
        }
      ],
      "name": "setMaxPurchase",
      "outputs": [],
      "stateMutability": "nonpayable",
      "type": "function"
    },
    {
      "inputs": [
        {
          "internalType": "uint256",
          "name": "tokenNumber",
          "type": "uint256"
        }
      ],
      "name": "setMaxTokens",
      "outputs": [],
      "stateMutability": "nonpayable",
      "type": "function"
    },
    {
      "inputs": [
        {
          "internalType": "uint256",
          "name": "price",
          "type": "uint256"
        }
      ],
      "name": "setPrice",
      "outputs": [],
      "stateMutability": "nonpayable",
      "type": "function"
    },
    {
      "inputs": [
        {
          "internalType": "bytes4",
          "name": "interfaceId",
          "type": "bytes4"
        }
      ],
      "name": "supportsInterface",
      "outputs": [
        {
          "internalType": "bool",
          "name": "",
          "type": "bool"
        }
      ],
      "stateMutability": "view",
      "type": "function"
    },
    {
      "inputs": [],
      "name": "symbol",
      "outputs": [
        {
          "internalType": "string",
          "name": "",
          "type": "string"
        }
      ],
      "stateMutability": "view",
      "type": "function"
    },
    {
      "inputs": [],
      "name": "toggleSaleState",
      "outputs": [],
      "stateMutability": "nonpayable",
      "type": "function"
    },
    {
      "inputs": [
        {
          "internalType": "uint256",
          "name": "index",
          "type": "uint256"
        }
      ],
      "name": "tokenByIndex",
      "outputs": [
        {
          "internalType": "uint256",
          "name": "",
          "type": "uint256"
        }
      ],
      "stateMutability": "view",
      "type": "function"
    },
    {
      "inputs": [
        {
          "internalType": "address",
          "name": "owner",
          "type": "address"
        },
        {
          "internalType": "uint256",
          "name": "index",
          "type": "uint256"
        }
      ],
      "name": "tokenOfOwnerByIndex",
      "outputs": [
        {
          "internalType": "uint256",
          "name": "",
          "type": "uint256"
        }
      ],
      "stateMutability": "view",
      "type": "function"
    },
    {
      "inputs": [],
      "name": "tokenPrice",
      "outputs": [
        {
          "internalType": "uint256",
          "name": "",
          "type": "uint256"
        }
      ],
      "stateMutability": "view",
      "type": "function"
    },
    {
      "inputs": [
        {
          "internalType": "uint256",
          "name": "tokenId",
          "type": "uint256"
        }
      ],
      "name": "tokenURI",
      "outputs": [
        {
          "internalType": "string",
          "name": "",
          "type": "string"
        }
      ],
      "stateMutability": "view",
      "type": "function"
    },
    {
      "inputs": [
        {
          "internalType": "address",
          "name": "_owner",
          "type": "address"
        }
      ],
      "name": "tokensOfOwner",
      "outputs": [
        {
          "internalType": "uint256[]",
          "name": "",
          "type": "uint256[]"
        }
      ],
      "stateMutability": "view",
      "type": "function"
    },
    {
      "inputs": [],
      "name": "totalSupply",
      "outputs": [
        {
          "internalType": "uint256",
          "name": "",
          "type": "uint256"
        }
      ],
      "stateMutability": "view",
      "type": "function"
    },
    {
      "inputs": [
        {
          "internalType": "address",
          "name": "from",
          "type": "address"
        },
        {
          "internalType": "address",
          "name": "to",
          "type": "address"
        },
        {
          "internalType": "uint256",
          "name": "tokenId",
          "type": "uint256"
        }
      ],
      "name": "transferFrom",
      "outputs": [],
      "stateMutability": "nonpayable",
      "type": "function"
    },
    {
      "inputs": [
        {
          "internalType": "address",
          "name": "newOwner",
          "type": "address"
        }
      ],
      "name": "transferOwnership",
      "outputs": [],
      "stateMutability": "nonpayable",
      "type": "function"
    },
    {
      "inputs": [],
      "name": "withdraw",
      "outputs": [],
      "stateMutability": "payable",
      "type": "function"
    }
  ],
  "bytecode": "0x608060405267016345785d8a0000600b556001600c55610457600d556040518060800160405280605181526020016200464560519139600e90805190602001906200004c9291906200020a565b506001600f60006101000a81548160ff0219169083151502179055503480156200007557600080fd5b506040518060400160405280601781526020017f4e4654666c6f77204d656d6265727368697020506173730000000000000000008152506040518060400160405280600781526020017f4e4654666c6f77000000000000000000000000000000000000000000000000008152508160009080519060200190620000fa9291906200020a565b508060019080519060200190620001139291906200020a565b505050620001366200012a6200013c60201b60201c565b6200014460201b60201c565b6200031f565b600033905090565b6000600660009054906101000a900473ffffffffffffffffffffffffffffffffffffffff16905081600660006101000a81548173ffffffffffffffffffffffffffffffffffffffff021916908373ffffffffffffffffffffffffffffffffffffffff1602179055508173ffffffffffffffffffffffffffffffffffffffff168173ffffffffffffffffffffffffffffffffffffffff167f8be0079c531659141344cd1fd0a4f28419497f9722a3daafe3b4186f6b6457e060405160405180910390a35050565b8280546200021890620002ba565b90600052602060002090601f0160209004810192826200023c576000855562000288565b82601f106200025757805160ff191683800117855562000288565b8280016001018555821562000288579182015b82811115620002875782518255916020019190600101906200026a565b5b5090506200029791906200029b565b5090565b5b80821115620002b65760008160009055506001016200029c565b5090565b60006002820490506001821680620002d357607f821691505b60208210811415620002ea57620002e9620002f0565b5b50919050565b7f4e487b7100000000000000000000000000000000000000000000000000000000600052602260045260246000fd5b614316806200032f6000396000f3fe6080604052600436106102045760003560e01c806370a0823111610118578063b42e620d116100a0578063daaeec861161006f578063daaeec8614610718578063e985e9c51461072f578063eb8d24441461076c578063f2fde38b14610797578063f47c84c5146107c057610204565b8063b42e620d1461067d578063b88d4fde14610687578063c87b56dd146106b0578063d69f6bae146106ed57610204565b80638462151c116100e75780638462151c146105985780638da5cb5b146105d557806391b7f5ed1461060057806395d89b4114610629578063a22cb4651461065457610204565b806370a08231146104f0578063711897421461052d578063715018a6146105565780637ff9b5961461056d57610204565b806323b872dd1161019b578063449a52f81161016a578063449a52f8146103f95780634f6ccce71461042257806355f804b31461045f5780636352211e146104885780636c0360eb146104c557610204565b806323b872dd146103605780632f745c59146103895780633ccfd60b146103c657806342842e0e146103d057610204565b806309aa3dcf116101d757806309aa3dcf146102d757806311e776fe1461030257806314f710fe1461032b57806318160ddd1461033557610204565b806301ffc9a71461020957806306fdde0314610246578063081812fc14610271578063095ea7b3146102ae575b600080fd5b34801561021557600080fd5b50610230600480360381019061022b9190613058565b6107eb565b60405161023d919061362b565b60405180910390f35b34801561025257600080fd5b5061025b6107fd565b6040516102689190613646565b60405180910390f35b34801561027d57600080fd5b50610298600480360381019061029391906130eb565b61088f565b6040516102a591906135a2565b60405180910390f35b3480156102ba57600080fd5b506102d560048036038101906102d0919061301c565b610914565b005b3480156102e357600080fd5b506102ec610a2c565b6040516102f991906138e8565b60405180910390f35b34801561030e57600080fd5b50610329600480360381019061032491906130eb565b610a32565b005b610333610ab8565b005b34801561034157600080fd5b5061034a610bec565b60405161035791906138e8565b60405180910390f35b34801561036c57600080fd5b5061038760048036038101906103829190612f16565b610bf9565b005b34801561039557600080fd5b506103b060048036038101906103ab919061301c565b610c59565b6040516103bd91906138e8565b60405180910390f35b6103ce610cfe565b005b3480156103dc57600080fd5b506103f760048036038101906103f29190612f16565b610dfa565b005b34801561040557600080fd5b50610420600480360381019061041b919061301c565b610e1a565b005b34801561042e57600080fd5b50610449600480360381019061044491906130eb565b610f2e565b60405161045691906138e8565b60405180910390f35b34801561046b57600080fd5b50610486600480360381019061048191906130aa565b610fc5565b005b34801561049457600080fd5b506104af60048036038101906104aa91906130eb565b61105b565b6040516104bc91906135a2565b60405180910390f35b3480156104d157600080fd5b506104da61110d565b6040516104e79190613646565b60405180910390f35b3480156104fc57600080fd5b5061051760048036038101906105129190612eb1565b61119b565b60405161052491906138e8565b60405180910390f35b34801561053957600080fd5b50610554600480360381019061054f91906130eb565b611253565b005b34801561056257600080fd5b5061056b6112d9565b005b34801561057957600080fd5b50610582611361565b60405161058f91906138e8565b60405180910390f35b3480156105a457600080fd5b506105bf60048036038101906105ba9190612eb1565b611367565b6040516105cc9190613609565b60405180910390f35b3480156105e157600080fd5b506105ea6114e3565b6040516105f791906135a2565b60405180910390f35b34801561060c57600080fd5b50610627600480360381019061062291906130eb565b61150d565b005b34801561063557600080fd5b5061063e611593565b60405161064b9190613646565b60405180910390f35b34801561066057600080fd5b5061067b60048036038101906106769190612fe0565b611625565b005b61068561163b565b005b34801561069357600080fd5b506106ae60048036038101906106a99190612f65565b611784565b005b3480156106bc57600080fd5b506106d760048036038101906106d291906130eb565b6117e6565b6040516106e49190613646565b60405180910390f35b3480156106f957600080fd5b50610702611883565b60405161070f91906138e8565b60405180910390f35b34801561072457600080fd5b5061072d611892565b005b34801561073b57600080fd5b5061075660048036038101906107519190612eda565b61193a565b604051610763919061362b565b60405180910390f35b34801561077857600080fd5b506107816119ce565b60405161078e919061362b565b60405180910390f35b3480156107a357600080fd5b506107be60048036038101906107b99190612eb1565b6119e1565b005b3480156107cc57600080fd5b506107d5611ad9565b6040516107e291906138e8565b60405180910390f35b60006107f682611adf565b9050919050565b60606000805461080c90613b7a565b80601f016020809104026020016040519081016040528092919081815260200182805461083890613b7a565b80156108855780601f1061085a57610100808354040283529160200191610885565b820191906000526020600020905b81548152906001019060200180831161086857829003601f168201915b5050505050905090565b600061089a82611b59565b6108d9576040517f08c379a00000000000000000000000000000000000000000000000000000000081526004016108d090613808565b60405180910390fd5b6004600083815260200190815260200160002060009054906101000a900473ffffffffffffffffffffffffffffffffffffffff169050919050565b600061091f8261105b565b90508073ffffffffffffffffffffffffffffffffffffffff168373ffffffffffffffffffffffffffffffffffffffff161415610990576040517f08c379a000000000000000000000000000000000000000000000000000000000815260040161098790613888565b60405180910390fd5b8073ffffffffffffffffffffffffffffffffffffffff166109af611bc5565b73ffffffffffffffffffffffffffffffffffffffff1614806109de57506109dd816109d8611bc5565b61193a565b5b610a1d576040517f08c379a0000000000000000000000000000000000000000000000000000000008152600401610a1490613768565b60405180910390fd5b610a278383611bcd565b505050565b600c5481565b610a3a611bc5565b73ffffffffffffffffffffffffffffffffffffffff16610a586114e3565b73ffffffffffffffffffffffffffffffffffffffff1614610aae576040517f08c379a0000000000000000000000000000000000000000000000000000000008152600401610aa590613828565b60405180910390fd5b80600d8190555050565b600f60009054906101000a900460ff16610b07576040517f08c379a0000000000000000000000000000000000000000000000000000000008152600401610afe906136e8565b60405180910390fd5b600d54610b256001610b17610bec565b611c8690919063ffffffff16565b1115610b66576040517f08c379a0000000000000000000000000000000000000000000000000000000008152600401610b5d906137c8565b60405180910390fd5b600b54341015610b7557600080fd5b6000610b926001610b84610bec565b611c8690919063ffffffff16565b9050600d54610b9f610bec565b1015610be957610baf3382611c9c565b7f0176f203df400d7bd5f1b1c9ef36c16709bf3b5d9fd35f000a6bae32393f66c38133604051610be0929190613903565b60405180910390a15b50565b6000600980549050905090565b610c0a610c04611bc5565b82611cba565b610c49576040517f08c379a0000000000000000000000000000000000000000000000000000000008152600401610c40906138a8565b60405180910390fd5b610c54838383611d98565b505050565b6000610c648361119b565b8210610ca5576040517f08c379a0000000000000000000000000000000000000000000000000000000008152600401610c9c90613668565b60405180910390fd5b600760008473ffffffffffffffffffffffffffffffffffffffff1673ffffffffffffffffffffffffffffffffffffffff168152602001908152602001600020600083815260200190815260200160002054905092915050565b610d06611bc5565b73ffffffffffffffffffffffffffffffffffffffff16610d246114e3565b73ffffffffffffffffffffffffffffffffffffffff1614610d7a576040517f08c379a0000000000000000000000000000000000000000000000000000000008152600401610d7190613828565b60405180910390fd5b6000610d846114e3565b73ffffffffffffffffffffffffffffffffffffffff1647604051610da79061358d565b60006040518083038185875af1925050503d8060008114610de4576040519150601f19603f3d011682016040523d82523d6000602084013e610de9565b606091505b5050905080610df757600080fd5b50565b610e1583838360405180602001604052806000815250611784565b505050565b610e22611bc5565b73ffffffffffffffffffffffffffffffffffffffff16610e406114e3565b73ffffffffffffffffffffffffffffffffffffffff1614610e96576040517f08c379a0000000000000000000000000000000000000000000000000000000008152600401610e8d90613828565b60405180910390fd5b60005b81811015610f29576000610ebe6001610eb0610bec565b611c8690919063ffffffff16565b9050600d54610ecb610bec565b1015610f1557610edb8482611c9c565b7f0176f203df400d7bd5f1b1c9ef36c16709bf3b5d9fd35f000a6bae32393f66c38185604051610f0c929190613903565b60405180910390a15b508080610f2190613bdd565b915050610e99565b505050565b6000610f38610bec565b8210610f79576040517f08c379a0000000000000000000000000000000000000000000000000000000008152600401610f70906138c8565b60405180910390fd5b60098281548110610fb3577f4e487b7100000000000000000000000000000000000000000000000000000000600052603260045260246000fd5b90600052602060002001549050919050565b610fcd611bc5565b73ffffffffffffffffffffffffffffffffffffffff16610feb6114e3565b73ffffffffffffffffffffffffffffffffffffffff1614611041576040517f08c379a000000000000000000000000000000000000000000000000000000000815260040161103890613828565b60405180910390fd5b80600e9080519060200190611057929190612cd5565b5050565b6000806002600084815260200190815260200160002060009054906101000a900473ffffffffffffffffffffffffffffffffffffffff169050600073ffffffffffffffffffffffffffffffffffffffff168173ffffffffffffffffffffffffffffffffffffffff161415611104576040517f08c379a00000000000000000000000000000000000000000000000000000000081526004016110fb906137a8565b60405180910390fd5b80915050919050565b600e805461111a90613b7a565b80601f016020809104026020016040519081016040528092919081815260200182805461114690613b7a565b80156111935780601f1061116857610100808354040283529160200191611193565b820191906000526020600020905b81548152906001019060200180831161117657829003601f168201915b505050505081565b60008073ffffffffffffffffffffffffffffffffffffffff168273ffffffffffffffffffffffffffffffffffffffff16141561120c576040517f08c379a000000000000000000000000000000000000000000000000000000000815260040161120390613788565b60405180910390fd5b600360008373ffffffffffffffffffffffffffffffffffffffff1673ffffffffffffffffffffffffffffffffffffffff168152602001908152602001600020549050919050565b61125b611bc5565b73ffffffffffffffffffffffffffffffffffffffff166112796114e3565b73ffffffffffffffffffffffffffffffffffffffff16146112cf576040517f08c379a00000000000000000000000000000000000000000000000000000000081526004016112c690613828565b60405180910390fd5b80600c8190555050565b6112e1611bc5565b73ffffffffffffffffffffffffffffffffffffffff166112ff6114e3565b73ffffffffffffffffffffffffffffffffffffffff1614611355576040517f08c379a000000000000000000000000000000000000000000000000000000000815260040161134c90613828565b60405180910390fd5b61135f6000611ff4565b565b600b5481565b606060006113748361119b565b905060008114156113f757600067ffffffffffffffff8111156113c0577f4e487b7100000000000000000000000000000000000000000000000000000000600052604160045260246000fd5b6040519080825280602002602001820160405280156113ee5781602001602082028036833780820191505090505b509150506114de565b60008167ffffffffffffffff811115611439577f4e487b7100000000000000000000000000000000000000000000000000000000600052604160045260246000fd5b6040519080825280602002602001820160405280156114675781602001602082028036833780820191505090505b50905060005b828110156114d75761147f8582610c59565b8282815181106114b8577f4e487b7100000000000000000000000000000000000000000000000000000000600052603260045260246000fd5b60200260200101818152505080806114cf90613bdd565b91505061146d565b8193505050505b919050565b6000600660009054906101000a900473ffffffffffffffffffffffffffffffffffffffff16905090565b611515611bc5565b73ffffffffffffffffffffffffffffffffffffffff166115336114e3565b73ffffffffffffffffffffffffffffffffffffffff1614611589576040517f08c379a000000000000000000000000000000000000000000000000000000000815260040161158090613828565b60405180910390fd5b80600b8190555050565b6060600180546115a290613b7a565b80601f01602080910402602001604051908101604052809291908181526020018280546115ce90613b7a565b801561161b5780601f106115f05761010080835404028352916020019161161b565b820191906000526020600020905b8154815290600101906020018083116115fe57829003601f168201915b5050505050905090565b611637611630611bc5565b83836120ba565b5050565b600f60009054906101000a900460ff1661168a576040517f08c379a0000000000000000000000000000000000000000000000000000000008152600401611681906136e8565b60405180910390fd5b600d546116a8600161169a610bec565b611c8690919063ffffffff16565b11156116e9576040517f08c379a00000000000000000000000000000000000000000000000000000000081526004016116e0906137c8565b60405180910390fd5b60006116f43361119b565b146116fe57600080fd5b600b5434101561170d57600080fd5b600061172a600161171c610bec565b611c8690919063ffffffff16565b9050600d54611737610bec565b1015611781576117473382611c9c565b7f0176f203df400d7bd5f1b1c9ef36c16709bf3b5d9fd35f000a6bae32393f66c38133604051611778929190613903565b60405180910390a15b50565b61179561178f611bc5565b83611cba565b6117d4576040517f08c379a00000000000000000000000000000000000000000000000000000000081526004016117cb906138a8565b60405180910390fd5b6117e084848484612227565b50505050565b60606117f182611b59565b611830576040517f08c379a000000000000000000000000000000000000000000000000000000000815260040161182790613868565b60405180910390fd5b600061183a612283565b9050600081511161185a576040518060200160405280600081525061187b565b8060405160200161186b919061356b565b6040516020818303038152906040525b915050919050565b600061188d610bec565b905090565b61189a611bc5565b73ffffffffffffffffffffffffffffffffffffffff166118b86114e3565b73ffffffffffffffffffffffffffffffffffffffff161461190e576040517f08c379a000000000000000000000000000000000000000000000000000000000815260040161190590613828565b60405180910390fd5b600f60009054906101000a900460ff1615600f60006101000a81548160ff021916908315150217905550565b6000600560008473ffffffffffffffffffffffffffffffffffffffff1673ffffffffffffffffffffffffffffffffffffffff16815260200190815260200160002060008373ffffffffffffffffffffffffffffffffffffffff1673ffffffffffffffffffffffffffffffffffffffff16815260200190815260200160002060009054906101000a900460ff16905092915050565b600f60009054906101000a900460ff1681565b6119e9611bc5565b73ffffffffffffffffffffffffffffffffffffffff16611a076114e3565b73ffffffffffffffffffffffffffffffffffffffff1614611a5d576040517f08c379a0000000000000000000000000000000000000000000000000000000008152600401611a5490613828565b60405180910390fd5b600073ffffffffffffffffffffffffffffffffffffffff168173ffffffffffffffffffffffffffffffffffffffff161415611acd576040517f08c379a0000000000000000000000000000000000000000000000000000000008152600401611ac4906136a8565b60405180910390fd5b611ad681611ff4565b50565b600d5481565b60007f780e9d63000000000000000000000000000000000000000000000000000000007bffffffffffffffffffffffffffffffffffffffffffffffffffffffff1916827bffffffffffffffffffffffffffffffffffffffffffffffffffffffff19161480611b525750611b5182612315565b5b9050919050565b60008073ffffffffffffffffffffffffffffffffffffffff166002600084815260200190815260200160002060009054906101000a900473ffffffffffffffffffffffffffffffffffffffff1673ffffffffffffffffffffffffffffffffffffffff1614159050919050565b600033905090565b816004600083815260200190815260200160002060006101000a81548173ffffffffffffffffffffffffffffffffffffffff021916908373ffffffffffffffffffffffffffffffffffffffff160217905550808273ffffffffffffffffffffffffffffffffffffffff16611c408361105b565b73ffffffffffffffffffffffffffffffffffffffff167f8c5be1e5ebec7d5bd14f71427d1e84f3dd0314c0f7b2291e5b200ac8c7c3b92560405160405180910390a45050565b60008183611c949190613a3a565b905092915050565b611cb68282604051806020016040528060008152506123f7565b5050565b6000611cc582611b59565b611d04576040517f08c379a0000000000000000000000000000000000000000000000000000000008152600401611cfb90613748565b60405180910390fd5b6000611d0f8361105b565b90508073ffffffffffffffffffffffffffffffffffffffff168473ffffffffffffffffffffffffffffffffffffffff161480611d7e57508373ffffffffffffffffffffffffffffffffffffffff16611d668461088f565b73ffffffffffffffffffffffffffffffffffffffff16145b80611d8f5750611d8e818561193a565b5b91505092915050565b8273ffffffffffffffffffffffffffffffffffffffff16611db88261105b565b73ffffffffffffffffffffffffffffffffffffffff1614611e0e576040517f08c379a0000000000000000000000000000000000000000000000000000000008152600401611e0590613848565b60405180910390fd5b600073ffffffffffffffffffffffffffffffffffffffff168273ffffffffffffffffffffffffffffffffffffffff161415611e7e576040517f08c379a0000000000000000000000000000000000000000000000000000000008152600401611e7590613708565b60405180910390fd5b611e89838383612452565b611e94600082611bcd565b6001600360008573ffffffffffffffffffffffffffffffffffffffff1673ffffffffffffffffffffffffffffffffffffffff1681526020019081526020016000206000828254611ee49190613a90565b925050819055506001600360008473ffffffffffffffffffffffffffffffffffffffff1673ffffffffffffffffffffffffffffffffffffffff1681526020019081526020016000206000828254611f3b9190613a3a565b92505081905550816002600083815260200190815260200160002060006101000a81548173ffffffffffffffffffffffffffffffffffffffff021916908373ffffffffffffffffffffffffffffffffffffffff160217905550808273ffffffffffffffffffffffffffffffffffffffff168473ffffffffffffffffffffffffffffffffffffffff167fddf252ad1be2c89b69c2b068fc378daa952ba7f163c4a11628f55a4df523b3ef60405160405180910390a4505050565b6000600660009054906101000a900473ffffffffffffffffffffffffffffffffffffffff16905081600660006101000a81548173ffffffffffffffffffffffffffffffffffffffff021916908373ffffffffffffffffffffffffffffffffffffffff1602179055508173ffffffffffffffffffffffffffffffffffffffff168173ffffffffffffffffffffffffffffffffffffffff167f8be0079c531659141344cd1fd0a4f28419497f9722a3daafe3b4186f6b6457e060405160405180910390a35050565b8173ffffffffffffffffffffffffffffffffffffffff168373ffffffffffffffffffffffffffffffffffffffff161415612129576040517f08c379a000000000000000000000000000000000000000000000000000000000815260040161212090613728565b60405180910390fd5b80600560008573ffffffffffffffffffffffffffffffffffffffff1673ffffffffffffffffffffffffffffffffffffffff16815260200190815260200160002060008473ffffffffffffffffffffffffffffffffffffffff1673ffffffffffffffffffffffffffffffffffffffff16815260200190815260200160002060006101000a81548160ff0219169083151502179055508173ffffffffffffffffffffffffffffffffffffffff168373ffffffffffffffffffffffffffffffffffffffff167f17307eab39ab6107e8899845ad3d59bd9653f200f220920489ca2b5937696c318360405161221a919061362b565b60405180910390a3505050565b612232848484611d98565b61223e84848484612462565b61227d576040517f08c379a000000000000000000000000000000000000000000000000000000000815260040161227490613688565b60405180910390fd5b50505050565b6060600e805461229290613b7a565b80601f01602080910402602001604051908101604052809291908181526020018280546122be90613b7a565b801561230b5780601f106122e05761010080835404028352916020019161230b565b820191906000526020600020905b8154815290600101906020018083116122ee57829003601f168201915b5050505050905090565b60007f80ac58cd000000000000000000000000000000000000000000000000000000007bffffffffffffffffffffffffffffffffffffffffffffffffffffffff1916827bffffffffffffffffffffffffffffffffffffffffffffffffffffffff191614806123e057507f5b5e139f000000000000000000000000000000000000000000000000000000007bffffffffffffffffffffffffffffffffffffffffffffffffffffffff1916827bffffffffffffffffffffffffffffffffffffffffffffffffffffffff1916145b806123f057506123ef826125f9565b5b9050919050565b6124018383612663565b61240e6000848484612462565b61244d576040517f08c379a000000000000000000000000000000000000000000000000000000000815260040161244490613688565b60405180910390fd5b505050565b61245d838383612831565b505050565b60006124838473ffffffffffffffffffffffffffffffffffffffff16612945565b156125ec578373ffffffffffffffffffffffffffffffffffffffff1663150b7a026124ac611bc5565b8786866040518563ffffffff1660e01b81526004016124ce94939291906135bd565b602060405180830381600087803b1580156124e857600080fd5b505af192505050801561251957506040513d601f19601f820116820180604052508101906125169190613081565b60015b61259c573d8060008114612549576040519150601f19603f3d011682016040523d82523d6000602084013e61254e565b606091505b50600081511415612594576040517f08c379a000000000000000000000000000000000000000000000000000000000815260040161258b90613688565b60405180910390fd5b805181602001fd5b63150b7a0260e01b7bffffffffffffffffffffffffffffffffffffffffffffffffffffffff1916817bffffffffffffffffffffffffffffffffffffffffffffffffffffffff1916149150506125f1565b600190505b949350505050565b60007f01ffc9a7000000000000000000000000000000000000000000000000000000007bffffffffffffffffffffffffffffffffffffffffffffffffffffffff1916827bffffffffffffffffffffffffffffffffffffffffffffffffffffffff1916149050919050565b600073ffffffffffffffffffffffffffffffffffffffff168273ffffffffffffffffffffffffffffffffffffffff1614156126d3576040517f08c379a00000000000000000000000000000000000000000000000000000000081526004016126ca906137e8565b60405180910390fd5b6126dc81611b59565b1561271c576040517f08c379a0000000000000000000000000000000000000000000000000000000008152600401612713906136c8565b60405180910390fd5b61272860008383612452565b6001600360008473ffffffffffffffffffffffffffffffffffffffff1673ffffffffffffffffffffffffffffffffffffffff16815260200190815260200160002060008282546127789190613a3a565b92505081905550816002600083815260200190815260200160002060006101000a81548173ffffffffffffffffffffffffffffffffffffffff021916908373ffffffffffffffffffffffffffffffffffffffff160217905550808273ffffffffffffffffffffffffffffffffffffffff16600073ffffffffffffffffffffffffffffffffffffffff167fddf252ad1be2c89b69c2b068fc378daa952ba7f163c4a11628f55a4df523b3ef60405160405180910390a45050565b61283c838383612958565b600073ffffffffffffffffffffffffffffffffffffffff168373ffffffffffffffffffffffffffffffffffffffff16141561287f5761287a8161295d565b6128be565b8173ffffffffffffffffffffffffffffffffffffffff168373ffffffffffffffffffffffffffffffffffffffff16146128bd576128bc83826129a6565b5b5b600073ffffffffffffffffffffffffffffffffffffffff168273ffffffffffffffffffffffffffffffffffffffff161415612901576128fc81612b13565b612940565b8273ffffffffffffffffffffffffffffffffffffffff168273ffffffffffffffffffffffffffffffffffffffff161461293f5761293e8282612c56565b5b5b505050565b600080823b905060008111915050919050565b505050565b600980549050600a600083815260200190815260200160002081905550600981908060018154018082558091505060019003906000526020600020016000909190919091505550565b600060016129b38461119b565b6129bd9190613a90565b9050600060086000848152602001908152602001600020549050818114612aa2576000600760008673ffffffffffffffffffffffffffffffffffffffff1673ffffffffffffffffffffffffffffffffffffffff168152602001908152602001600020600084815260200190815260200160002054905080600760008773ffffffffffffffffffffffffffffffffffffffff1673ffffffffffffffffffffffffffffffffffffffff168152602001908152602001600020600084815260200190815260200160002081905550816008600083815260200190815260200160002081905550505b6008600084815260200190815260200160002060009055600760008573ffffffffffffffffffffffffffffffffffffffff1673ffffffffffffffffffffffffffffffffffffffff16815260200190815260200160002060008381526020019081526020016000206000905550505050565b60006001600980549050612b279190613a90565b90506000600a6000848152602001908152602001600020549050600060098381548110612b7d577f4e487b7100000000000000000000000000000000000000000000000000000000600052603260045260246000fd5b906000526020600020015490508060098381548110612bc5577f4e487b7100000000000000000000000000000000000000000000000000000000600052603260045260246000fd5b906000526020600020018190555081600a600083815260200190815260200160002081905550600a6000858152602001908152602001600020600090556009805480612c3a577f4e487b7100000000000000000000000000000000000000000000000000000000600052603160045260246000fd5b6001900381819060005260206000200160009055905550505050565b6000612c618361119b565b905081600760008573ffffffffffffffffffffffffffffffffffffffff1673ffffffffffffffffffffffffffffffffffffffff168152602001908152602001600020600083815260200190815260200160002081905550806008600084815260200190815260200160002081905550505050565b828054612ce190613b7a565b90600052602060002090601f016020900481019282612d035760008555612d4a565b82601f10612d1c57805160ff1916838001178555612d4a565b82800160010185558215612d4a579182015b82811115612d49578251825591602001919060010190612d2e565b5b509050612d579190612d5b565b5090565b5b80821115612d74576000816000905550600101612d5c565b5090565b6000612d8b612d8684613951565b61392c565b905082815260208101848484011115612da357600080fd5b612dae848285613b38565b509392505050565b6000612dc9612dc484613982565b61392c565b905082815260208101848484011115612de157600080fd5b612dec848285613b38565b509392505050565b600081359050612e0381614284565b92915050565b600081359050612e188161429b565b92915050565b600081359050612e2d816142b2565b92915050565b600081519050612e42816142b2565b92915050565b600082601f830112612e5957600080fd5b8135612e69848260208601612d78565b91505092915050565b600082601f830112612e8357600080fd5b8135612e93848260208601612db6565b91505092915050565b600081359050612eab816142c9565b92915050565b600060208284031215612ec357600080fd5b6000612ed184828501612df4565b91505092915050565b60008060408385031215612eed57600080fd5b6000612efb85828601612df4565b9250506020612f0c85828601612df4565b9150509250929050565b600080600060608486031215612f2b57600080fd5b6000612f3986828701612df4565b9350506020612f4a86828701612df4565b9250506040612f5b86828701612e9c565b9150509250925092565b60008060008060808587031215612f7b57600080fd5b6000612f8987828801612df4565b9450506020612f9a87828801612df4565b9350506040612fab87828801612e9c565b925050606085013567ffffffffffffffff811115612fc857600080fd5b612fd487828801612e48565b91505092959194509250565b60008060408385031215612ff357600080fd5b600061300185828601612df4565b925050602061301285828601612e09565b9150509250929050565b6000806040838503121561302f57600080fd5b600061303d85828601612df4565b925050602061304e85828601612e9c565b9150509250929050565b60006020828403121561306a57600080fd5b600061307884828501612e1e565b91505092915050565b60006020828403121561309357600080fd5b60006130a184828501612e33565b91505092915050565b6000602082840312156130bc57600080fd5b600082013567ffffffffffffffff8111156130d657600080fd5b6130e284828501612e72565b91505092915050565b6000602082840312156130fd57600080fd5b600061310b84828501612e9c565b91505092915050565b6000613120838361354d565b60208301905092915050565b61313581613ac4565b82525050565b6000613146826139c3565b61315081856139f1565b935061315b836139b3565b8060005b8381101561318c5781516131738882613114565b975061317e836139e4565b92505060018101905061315f565b5085935050505092915050565b6131a281613ad6565b82525050565b60006131b3826139ce565b6131bd8185613a02565b93506131cd818560208601613b47565b6131d681613cb3565b840191505092915050565b60006131ec826139d9565b6131f68185613a1e565b9350613206818560208601613b47565b61320f81613cb3565b840191505092915050565b6000613225826139d9565b61322f8185613a2f565b935061323f818560208601613b47565b80840191505092915050565b6000613258600183613a2f565b915061326382613cc4565b600182019050919050565b600061327b602b83613a1e565b915061328682613ced565b604082019050919050565b600061329e603283613a1e565b91506132a982613d3c565b604082019050919050565b60006132c1602683613a1e565b91506132cc82613d8b565b604082019050919050565b60006132e4601c83613a1e565b91506132ef82613dda565b602082019050919050565b6000613307602183613a1e565b915061331282613e03565b604082019050919050565b600061332a602483613a1e565b915061333582613e52565b604082019050919050565b600061334d601983613a1e565b915061335882613ea1565b602082019050919050565b6000613370602c83613a1e565b915061337b82613eca565b604082019050919050565b6000613393603883613a1e565b915061339e82613f19565b604082019050919050565b60006133b6602a83613a1e565b91506133c182613f68565b604082019050919050565b60006133d9602983613a1e565b91506133e482613fb7565b604082019050919050565b60006133fc602a83613a1e565b915061340782614006565b604082019050919050565b600061341f602083613a1e565b915061342a82614055565b602082019050919050565b6000613442602c83613a1e565b915061344d8261407e565b604082019050919050565b6000613465602083613a1e565b9150613470826140cd565b602082019050919050565b6000613488602983613a1e565b9150613493826140f6565b604082019050919050565b60006134ab602f83613a1e565b91506134b682614145565b604082019050919050565b60006134ce602183613a1e565b91506134d982614194565b604082019050919050565b60006134f1600083613a13565b91506134fc826141e3565b600082019050919050565b6000613514603183613a1e565b915061351f826141e6565b604082019050919050565b6000613537602c83613a1e565b915061354282614235565b604082019050919050565b61355681613b2e565b82525050565b61356581613b2e565b82525050565b6000613577828461321a565b91506135828261324b565b915081905092915050565b6000613598826134e4565b9150819050919050565b60006020820190506135b7600083018461312c565b92915050565b60006080820190506135d2600083018761312c565b6135df602083018661312c565b6135ec604083018561355c565b81810360608301526135fe81846131a8565b905095945050505050565b60006020820190508181036000830152613623818461313b565b905092915050565b60006020820190506136406000830184613199565b92915050565b6000602082019050818103600083015261366081846131e1565b905092915050565b600060208201905081810360008301526136818161326e565b9050919050565b600060208201905081810360008301526136a181613291565b9050919050565b600060208201905081810360008301526136c1816132b4565b9050919050565b600060208201905081810360008301526136e1816132d7565b9050919050565b60006020820190508181036000830152613701816132fa565b9050919050565b600060208201905081810360008301526137218161331d565b9050919050565b6000602082019050818103600083015261374181613340565b9050919050565b6000602082019050818103600083015261376181613363565b9050919050565b6000602082019050818103600083015261378181613386565b9050919050565b600060208201905081810360008301526137a1816133a9565b9050919050565b600060208201905081810360008301526137c1816133cc565b9050919050565b600060208201905081810360008301526137e1816133ef565b9050919050565b6000602082019050818103600083015261380181613412565b9050919050565b6000602082019050818103600083015261382181613435565b9050919050565b6000602082019050818103600083015261384181613458565b9050919050565b600060208201905081810360008301526138618161347b565b9050919050565b600060208201905081810360008301526138818161349e565b9050919050565b600060208201905081810360008301526138a1816134c1565b9050919050565b600060208201905081810360008301526138c181613507565b9050919050565b600060208201905081810360008301526138e18161352a565b9050919050565b60006020820190506138fd600083018461355c565b92915050565b6000604082019050613918600083018561355c565b613925602083018461312c565b9392505050565b6000613936613947565b90506139428282613bac565b919050565b6000604051905090565b600067ffffffffffffffff82111561396c5761396b613c84565b5b61397582613cb3565b9050602081019050919050565b600067ffffffffffffffff82111561399d5761399c613c84565b5b6139a682613cb3565b9050602081019050919050565b6000819050602082019050919050565b600081519050919050565b600081519050919050565b600081519050919050565b6000602082019050919050565b600082825260208201905092915050565b600082825260208201905092915050565b600081905092915050565b600082825260208201905092915050565b600081905092915050565b6000613a4582613b2e565b9150613a5083613b2e565b9250827fffffffffffffffffffffffffffffffffffffffffffffffffffffffffffffffff03821115613a8557613a84613c26565b5b828201905092915050565b6000613a9b82613b2e565b9150613aa683613b2e565b925082821015613ab957613ab8613c26565b5b828203905092915050565b6000613acf82613b0e565b9050919050565b60008115159050919050565b60007fffffffff0000000000000000000000000000000000000000000000000000000082169050919050565b600073ffffffffffffffffffffffffffffffffffffffff82169050919050565b6000819050919050565b82818337600083830152505050565b60005b83811015613b65578082015181840152602081019050613b4a565b83811115613b74576000848401525b50505050565b60006002820490506001821680613b9257607f821691505b60208210811415613ba657613ba5613c55565b5b50919050565b613bb582613cb3565b810181811067ffffffffffffffff82111715613bd457613bd3613c84565b5b80604052505050565b6000613be882613b2e565b91507fffffffffffffffffffffffffffffffffffffffffffffffffffffffffffffffff821415613c1b57613c1a613c26565b5b600182019050919050565b7f4e487b7100000000000000000000000000000000000000000000000000000000600052601160045260246000fd5b7f4e487b7100000000000000000000000000000000000000000000000000000000600052602260045260246000fd5b7f4e487b7100000000000000000000000000000000000000000000000000000000600052604160045260246000fd5b6000601f19601f8301169050919050565b7f3000000000000000000000000000000000000000000000000000000000000000600082015250565b7f455243373231456e756d657261626c653a206f776e657220696e646578206f7560008201527f74206f6620626f756e6473000000000000000000000000000000000000000000602082015250565b7f4552433732313a207472616e7366657220746f206e6f6e20455243373231526560008201527f63656976657220696d706c656d656e7465720000000000000000000000000000602082015250565b7f4f776e61626c653a206e6577206f776e657220697320746865207a65726f206160008201527f6464726573730000000000000000000000000000000000000000000000000000602082015250565b7f4552433732313a20746f6b656e20616c7265616479206d696e74656400000000600082015250565b7f53616c65206d7573742062652061637469766520746f206d696e7420546f6b6560008201527f6e00000000000000000000000000000000000000000000000000000000000000602082015250565b7f4552433732313a207472616e7366657220746f20746865207a65726f2061646460008201527f7265737300000000000000000000000000000000000000000000000000000000602082015250565b7f4552433732313a20617070726f766520746f2063616c6c657200000000000000600082015250565b7f4552433732313a206f70657261746f7220717565727920666f72206e6f6e657860008201527f697374656e7420746f6b656e0000000000000000000000000000000000000000602082015250565b7f4552433732313a20617070726f76652063616c6c6572206973206e6f74206f7760008201527f6e6572206e6f7220617070726f76656420666f7220616c6c0000000000000000602082015250565b7f4552433732313a2062616c616e636520717565727920666f7220746865207a6560008201527f726f206164647265737300000000000000000000000000000000000000000000602082015250565b7f4552433732313a206f776e657220717565727920666f72206e6f6e657869737460008201527f656e7420746f6b656e0000000000000000000000000000000000000000000000602082015250565b7f507572636861736520776f756c6420657863656564206d617820737570706c7960008201527f206f6620746f6b656e7300000000000000000000000000000000000000000000602082015250565b7f4552433732313a206d696e7420746f20746865207a65726f2061646472657373600082015250565b7f4552433732313a20617070726f76656420717565727920666f72206e6f6e657860008201527f697374656e7420746f6b656e0000000000000000000000000000000000000000602082015250565b7f4f776e61626c653a2063616c6c6572206973206e6f7420746865206f776e6572600082015250565b7f4552433732313a207472616e73666572206f6620746f6b656e2074686174206960008201527f73206e6f74206f776e0000000000000000000000000000000000000000000000602082015250565b7f4552433732314d657461646174613a2055524920717565727920666f72206e6f60008201527f6e6578697374656e7420746f6b656e0000000000000000000000000000000000602082015250565b7f4552433732313a20617070726f76616c20746f2063757272656e74206f776e6560008201527f7200000000000000000000000000000000000000000000000000000000000000602082015250565b50565b7f4552433732313a207472616e736665722063616c6c6572206973206e6f74206f60008201527f776e6572206e6f7220617070726f766564000000000000000000000000000000602082015250565b7f455243373231456e756d657261626c653a20676c6f62616c20696e646578206f60008201527f7574206f6620626f756e64730000000000000000000000000000000000000000602082015250565b61428d81613ac4565b811461429857600080fd5b50565b6142a481613ad6565b81146142af57600080fd5b50565b6142bb81613ae2565b81146142c657600080fd5b50565b6142d281613b2e565b81146142dd57600080fd5b5056fea2646970667358221220483fea97f11c007c0a15d392540424c22fd38bc8604bcd0bc0ab9bd5f4613c5c64736f6c6343000804003368747470733a2f2f676174657761792e70696e6174612e636c6f75642f697066732f516d5a48743754664e486b677268316a7376745256756e7674716666356e3153566a466f533762626979526369792f",
  "linkReferences": {},
  "deployedLinkReferences": {}
}