{
  "_format": "hh-sol-artifact-1",
  "contractName": "NFTFLOW",
  "sourceName": "contracts/NFTflow.sol",
  "abi": [
    {
      "inputs": [],
      "stateMutability": "nonpayable",
      "type": "constructor"
    },
    {
      "anonymous": false,
      "inputs": [
        {
          "indexed": true,
          "internalType": "address",
          "name": "owner",
          "type": "address"
        },
        {
          "indexed": true,
          "internalType": "address",
          "name": "approved",
          "type": "address"
        },
        {
          "indexed": true,
          "internalType": "uint256",
          "name": "tokenId",
          "type": "uint256"
        }
      ],
      "name": "Approval",
      "type": "event"
    },
    {
      "anonymous": false,
      "inputs": [
        {
          "indexed": true,
          "internalType": "address",
          "name": "owner",
          "type": "address"
        },
        {
          "indexed": true,
          "internalType": "address",
          "name": "operator",
          "type": "address"
        },
        {
          "indexed": false,
          "internalType": "bool",
          "name": "approved",
          "type": "bool"
        }
      ],
      "name": "ApprovalForAll",
      "type": "event"
    },
    {
      "anonymous": false,
      "inputs": [
        {
          "indexed": false,
          "internalType": "uint256",
          "name": "tokenId",
          "type": "uint256"
        },
        {
          "indexed": false,
          "internalType": "address",
          "name": "owner",
          "type": "address"
        }
      ],
      "name": "NFTMinted",
      "type": "event"
    },
    {
      "anonymous": false,
      "inputs": [
        {
          "indexed": true,
          "internalType": "address",
          "name": "previousOwner",
          "type": "address"
        },
        {
          "indexed": true,
          "internalType": "address",
          "name": "newOwner",
          "type": "address"
        }
      ],
      "name": "OwnershipTransferred",
      "type": "event"
    },
    {
      "anonymous": false,
      "inputs": [
        {
          "indexed": true,
          "internalType": "address",
          "name": "from",
          "type": "address"
        },
        {
          "indexed": true,
          "internalType": "address",
          "name": "to",
          "type": "address"
        },
        {
          "indexed": true,
          "internalType": "uint256",
          "name": "tokenId",
          "type": "uint256"
        }
      ],
      "name": "Transfer",
      "type": "event"
    },
    {
      "inputs": [],
      "name": "MAX_TOKENS",
      "outputs": [
        {
          "internalType": "uint256",
          "name": "",
          "type": "uint256"
        }
      ],
      "stateMutability": "view",
      "type": "function"
    },
    {
      "inputs": [
        {
          "internalType": "address",
          "name": "to",
          "type": "address"
        },
        {
          "internalType": "uint256",
          "name": "tokenId",
          "type": "uint256"
        }
      ],
      "name": "approve",
      "outputs": [],
      "stateMutability": "nonpayable",
      "type": "function"
    },
    {
      "inputs": [
        {
          "internalType": "address",
          "name": "owner",
          "type": "address"
        }
      ],
      "name": "balanceOf",
      "outputs": [
        {
          "internalType": "uint256",
          "name": "",
          "type": "uint256"
        }
      ],
      "stateMutability": "view",
      "type": "function"
    },
    {
      "inputs": [],
      "name": "baseURI",
      "outputs": [
        {
          "internalType": "string",
          "name": "",
          "type": "string"
        }
      ],
      "stateMutability": "view",
      "type": "function"
    },
    {
      "inputs": [
        {
          "internalType": "uint256",
          "name": "tokenId",
          "type": "uint256"
        }
      ],
      "name": "getApproved",
      "outputs": [
        {
          "internalType": "address",
          "name": "",
          "type": "address"
        }
      ],
      "stateMutability": "view",
      "type": "function"
    },
    {
      "inputs": [],
      "name": "getTokensMinted",
      "outputs": [
        {
          "internalType": "uint256",
          "name": "",
          "type": "uint256"
        }
      ],
      "stateMutability": "view",
      "type": "function"
    },
    {
      "inputs": [
        {
          "internalType": "address",
          "name": "owner",
          "type": "address"
        },
        {
          "internalType": "address",
          "name": "operator",
          "type": "address"
        }
      ],
      "name": "isApprovedForAll",
      "outputs": [
        {
          "internalType": "bool",
          "name": "",
          "type": "bool"
        }
      ],
      "stateMutability": "view",
      "type": "function"
    },
    {
      "inputs": [],
      "name": "maxTokenPurchase",
      "outputs": [
        {
          "internalType": "uint256",
          "name": "",
          "type": "uint256"
        }
      ],
      "stateMutability": "view",
      "type": "function"
    },
    {
      "inputs": [],
      "name": "mintNFT",
      "outputs": [],
      "stateMutability": "nonpayable",
      "type": "function"
    },
    {
      "inputs": [],
      "name": "mintNFTEth",
      "outputs": [],
      "stateMutability": "payable",
      "type": "function"
    },
    {
      "inputs": [
        {
          "internalType": "address",
          "name": "receiver",
          "type": "address"
        },
        {
          "internalType": "uint256",
          "name": "numberOfTokens",
          "type": "uint256"
        }
      ],
      "name": "mintTo",
      "outputs": [],
      "stateMutability": "nonpayable",
      "type": "function"
    },
    {
      "inputs": [],
      "name": "name",
      "outputs": [
        {
          "internalType": "string",
          "name": "",
          "type": "string"
        }
      ],
      "stateMutability": "view",
      "type": "function"
    },
    {
      "inputs": [],
      "name": "owner",
      "outputs": [
        {
          "internalType": "address",
          "name": "",
          "type": "address"
        }
      ],
      "stateMutability": "view",
      "type": "function"
    },
    {
      "inputs": [
        {
          "internalType": "uint256",
          "name": "tokenId",
          "type": "uint256"
        }
      ],
      "name": "ownerOf",
      "outputs": [
        {
          "internalType": "address",
          "name": "",
          "type": "address"
        }
      ],
      "stateMutability": "view",
      "type": "function"
    },
    {
      "inputs": [],
      "name": "renounceOwnership",
      "outputs": [],
      "stateMutability": "nonpayable",
      "type": "function"
    },
    {
      "inputs": [
        {
          "internalType": "address",
          "name": "from",
          "type": "address"
        },
        {
          "internalType": "address",
          "name": "to",
          "type": "address"
        },
        {
          "internalType": "uint256",
          "name": "tokenId",
          "type": "uint256"
        }
      ],
      "name": "safeTransferFrom",
      "outputs": [],
      "stateMutability": "nonpayable",
      "type": "function"
    },
    {
      "inputs": [
        {
          "internalType": "address",
          "name": "from",
          "type": "address"
        },
        {
          "internalType": "address",
          "name": "to",
          "type": "address"
        },
        {
          "internalType": "uint256",
          "name": "tokenId",
          "type": "uint256"
        },
        {
          "internalType": "bytes",
          "name": "_data",
          "type": "bytes"
        }
      ],
      "name": "safeTransferFrom",
      "outputs": [],
      "stateMutability": "nonpayable",
      "type": "function"
    },
    {
      "inputs": [],
      "name": "saleIsActive",
      "outputs": [
        {
          "internalType": "bool",
          "name": "",
          "type": "bool"
        }
      ],
      "stateMutability": "view",
      "type": "function"
    },
    {
      "inputs": [
        {
          "internalType": "address",
          "name": "operator",
          "type": "address"
        },
        {
          "internalType": "bool",
          "name": "approved",
          "type": "bool"
        }
      ],
      "name": "setApprovalForAll",
      "outputs": [],
      "stateMutability": "nonpayable",
      "type": "function"
    },
    {
      "inputs": [
        {
          "internalType": "string",
          "name": "_newBaseURI",
          "type": "string"
        }
      ],
      "name": "setBaseURI",
      "outputs": [],
      "stateMutability": "nonpayable",
      "type": "function"
    },
    {
      "inputs": [
        {
          "internalType": "bytes4",
          "name": "interfaceId",
          "type": "bytes4"
        }
      ],
      "name": "supportsInterface",
      "outputs": [
        {
          "internalType": "bool",
          "name": "",
          "type": "bool"
        }
      ],
      "stateMutability": "view",
      "type": "function"
    },
    {
      "inputs": [],
      "name": "symbol",
      "outputs": [
        {
          "internalType": "string",
          "name": "",
          "type": "string"
        }
      ],
      "stateMutability": "view",
      "type": "function"
    },
    {
      "inputs": [],
      "name": "toggleSaleState",
      "outputs": [],
      "stateMutability": "nonpayable",
      "type": "function"
    },
    {
      "inputs": [
        {
          "internalType": "uint256",
          "name": "index",
          "type": "uint256"
        }
      ],
      "name": "tokenByIndex",
      "outputs": [
        {
          "internalType": "uint256",
          "name": "",
          "type": "uint256"
        }
      ],
      "stateMutability": "view",
      "type": "function"
    },
    {
      "inputs": [
        {
          "internalType": "address",
          "name": "owner",
          "type": "address"
        },
        {
          "internalType": "uint256",
          "name": "index",
          "type": "uint256"
        }
      ],
      "name": "tokenOfOwnerByIndex",
      "outputs": [
        {
          "internalType": "uint256",
          "name": "",
          "type": "uint256"
        }
      ],
      "stateMutability": "view",
      "type": "function"
    },
    {
      "inputs": [],
      "name": "tokenPrice",
      "outputs": [
        {
          "internalType": "uint256",
          "name": "",
          "type": "uint256"
        }
      ],
      "stateMutability": "view",
      "type": "function"
    },
    {
      "inputs": [
        {
          "internalType": "uint256",
          "name": "tokenId",
          "type": "uint256"
        }
      ],
      "name": "tokenURI",
      "outputs": [
        {
          "internalType": "string",
          "name": "",
          "type": "string"
        }
      ],
      "stateMutability": "view",
      "type": "function"
    },
    {
      "inputs": [
        {
          "internalType": "address",
          "name": "_owner",
          "type": "address"
        }
      ],
      "name": "tokensOfOwner",
      "outputs": [
        {
          "internalType": "uint256[]",
          "name": "",
          "type": "uint256[]"
        }
      ],
      "stateMutability": "view",
      "type": "function"
    },
    {
      "inputs": [],
      "name": "totalSupply",
      "outputs": [
        {
          "internalType": "uint256",
          "name": "",
          "type": "uint256"
        }
      ],
      "stateMutability": "view",
      "type": "function"
    },
    {
      "inputs": [
        {
          "internalType": "address",
          "name": "from",
          "type": "address"
        },
        {
          "internalType": "address",
          "name": "to",
          "type": "address"
        },
        {
          "internalType": "uint256",
          "name": "tokenId",
          "type": "uint256"
        }
      ],
      "name": "transferFrom",
      "outputs": [],
      "stateMutability": "nonpayable",
      "type": "function"
    },
    {
      "inputs": [
        {
          "internalType": "address",
          "name": "newOwner",
          "type": "address"
        }
      ],
      "name": "transferOwnership",
      "outputs": [],
      "stateMutability": "nonpayable",
      "type": "function"
    },
    {
      "inputs": [],
      "name": "withdraw",
      "outputs": [],
      "stateMutability": "payable",
      "type": "function"
    }
  ],
  "bytecode": "0x60806040526040518060800160405280605181526020016200441e60519139600b908051906020019062000035929190620001f3565b506001600c60006101000a81548160ff0219169083151502179055503480156200005e57600080fd5b506040518060400160405280601781526020017f4e4654666c6f77204d656d6265727368697020506173730000000000000000008152506040518060400160405280600781526020017f4e4654666c6f77000000000000000000000000000000000000000000000000008152508160009080519060200190620000e3929190620001f3565b508060019080519060200190620000fc929190620001f3565b5050506200011f620001136200012560201b60201c565b6200012d60201b60201c565b62000308565b600033905090565b6000600660009054906101000a900473ffffffffffffffffffffffffffffffffffffffff16905081600660006101000a81548173ffffffffffffffffffffffffffffffffffffffff021916908373ffffffffffffffffffffffffffffffffffffffff1602179055508173ffffffffffffffffffffffffffffffffffffffff168173ffffffffffffffffffffffffffffffffffffffff167f8be0079c531659141344cd1fd0a4f28419497f9722a3daafe3b4186f6b6457e060405160405180910390a35050565b8280546200020190620002a3565b90600052602060002090601f01602090048101928262000225576000855562000271565b82601f106200024057805160ff191683800117855562000271565b8280016001018555821562000271579182015b828111156200027057825182559160200191906001019062000253565b5b50905062000280919062000284565b5090565b5b808211156200029f57600081600090555060010162000285565b5090565b60006002820490506001821680620002bc57607f821691505b60208210811415620002d357620002d2620002d9565b5b50919050565b7f4e487b7100000000000000000000000000000000000000000000000000000000600052602260045260246000fd5b61410680620003186000396000f3fe6080604052600436106101e35760003560e01c806370a0823111610102578063b88d4fde11610095578063e985e9c511610064578063e985e9c5146106a0578063eb8d2444146106dd578063f2fde38b14610708578063f47c84c514610731576101e3565b8063b88d4fde146105f8578063c87b56dd14610621578063d69f6bae1461065e578063daaeec8614610689576101e3565b80638da5cb5b116100d15780638da5cb5b1461056f57806395d89b411461059a578063a22cb465146105c5578063b42e620d146105ee576101e3565b806370a08231146104b3578063715018a6146104f05780637ff9b596146105075780638462151c14610532576101e3565b80632f745c591161017a5780634f6ccce7116101495780634f6ccce7146103e557806355f804b3146104225780636352211e1461044b5780636c0360eb14610488576101e3565b80632f745c591461034c5780633ccfd60b1461038957806342842e0e14610393578063449a52f8146103bc576101e3565b806309aa3dcf116101b657806309aa3dcf146102b657806314f710fe146102e157806318160ddd146102f857806323b872dd14610323576101e3565b806301ffc9a7146101e857806306fdde0314610225578063081812fc14610250578063095ea7b31461028d575b600080fd5b3480156101f457600080fd5b5061020f600480360381019061020a9190612e48565b61075c565b60405161021c919061341b565b60405180910390f35b34801561023157600080fd5b5061023a61076e565b6040516102479190613436565b60405180910390f35b34801561025c57600080fd5b5061027760048036038101906102729190612edb565b610800565b6040516102849190613392565b60405180910390f35b34801561029957600080fd5b506102b460048036038101906102af9190612e0c565b610885565b005b3480156102c257600080fd5b506102cb61099d565b6040516102d891906136d8565b60405180910390f35b3480156102ed57600080fd5b506102f66109a2565b005b34801561030457600080fd5b5061030d610adc565b60405161031a91906136d8565b60405180910390f35b34801561032f57600080fd5b5061034a60048036038101906103459190612d06565b610ae9565b005b34801561035857600080fd5b50610373600480360381019061036e9190612e0c565b610b49565b60405161038091906136d8565b60405180910390f35b610391610bee565b005b34801561039f57600080fd5b506103ba60048036038101906103b59190612d06565b610cea565b005b3480156103c857600080fd5b506103e360048036038101906103de9190612e0c565b610d0a565b005b3480156103f157600080fd5b5061040c60048036038101906104079190612edb565b610e1e565b60405161041991906136d8565b60405180910390f35b34801561042e57600080fd5b5061044960048036038101906104449190612e9a565b610eb5565b005b34801561045757600080fd5b50610472600480360381019061046d9190612edb565b610f4b565b60405161047f9190613392565b60405180910390f35b34801561049457600080fd5b5061049d610ffd565b6040516104aa9190613436565b60405180910390f35b3480156104bf57600080fd5b506104da60048036038101906104d59190612ca1565b61108b565b6040516104e791906136d8565b60405180910390f35b3480156104fc57600080fd5b50610505611143565b005b34801561051357600080fd5b5061051c6111cb565b60405161052991906136d8565b60405180910390f35b34801561053e57600080fd5b5061055960048036038101906105549190612ca1565b6111d7565b60405161056691906133f9565b60405180910390f35b34801561057b57600080fd5b50610584611353565b6040516105919190613392565b60405180910390f35b3480156105a657600080fd5b506105af61137d565b6040516105bc9190613436565b60405180910390f35b3480156105d157600080fd5b506105ec60048036038101906105e79190612dd0565b61140f565b005b6105f6611425565b005b34801561060457600080fd5b5061061f600480360381019061061a9190612d55565b611574565b005b34801561062d57600080fd5b5061064860048036038101906106439190612edb565b6115d6565b6040516106559190613436565b60405180910390f35b34801561066a57600080fd5b50610673611673565b60405161068091906136d8565b60405180910390f35b34801561069557600080fd5b5061069e611682565b005b3480156106ac57600080fd5b506106c760048036038101906106c29190612cca565b61172a565b6040516106d4919061341b565b60405180910390f35b3480156106e957600080fd5b506106f26117be565b6040516106ff919061341b565b60405180910390f35b34801561071457600080fd5b5061072f600480360381019061072a9190612ca1565b6117d1565b005b34801561073d57600080fd5b506107466118c9565b60405161075391906136d8565b60405180910390f35b6000610767826118cf565b9050919050565b60606000805461077d9061396a565b80601f01602080910402602001604051908101604052809291908181526020018280546107a99061396a565b80156107f65780601f106107cb576101008083540402835291602001916107f6565b820191906000526020600020905b8154815290600101906020018083116107d957829003601f168201915b5050505050905090565b600061080b82611949565b61084a576040517f08c379a0000000000000000000000000000000000000000000000000000000008152600401610841906135f8565b60405180910390fd5b6004600083815260200190815260200160002060009054906101000a900473ffffffffffffffffffffffffffffffffffffffff169050919050565b600061089082610f4b565b90508073ffffffffffffffffffffffffffffffffffffffff168373ffffffffffffffffffffffffffffffffffffffff161415610901576040517f08c379a00000000000000000000000000000000000000000000000000000000081526004016108f890613678565b60405180910390fd5b8073ffffffffffffffffffffffffffffffffffffffff166109206119b5565b73ffffffffffffffffffffffffffffffffffffffff16148061094f575061094e816109496119b5565b61172a565b5b61098e576040517f08c379a000000000000000000000000000000000000000000000000000000000815260040161098590613558565b60405180910390fd5b61099883836119bd565b505050565b600181565b600c60009054906101000a900460ff166109f1576040517f08c379a00000000000000000000000000000000000000000000000000000000081526004016109e8906134d8565b60405180910390fd5b6103e8610a0f6001610a01610adc565b611a7690919063ffffffff16565b1115610a50576040517f08c379a0000000000000000000000000000000000000000000000000000000008152600401610a47906135b8565b60405180910390fd5b6000610a5b3361108b565b14610a6557600080fd5b6000610a826001610a74610adc565b611a7690919063ffffffff16565b90506103e8610a8f610adc565b1015610ad957610a9f3382611a8c565b7f0176f203df400d7bd5f1b1c9ef36c16709bf3b5d9fd35f000a6bae32393f66c38133604051610ad09291906136f3565b60405180910390a15b50565b6000600980549050905090565b610afa610af46119b5565b82611aaa565b610b39576040517f08c379a0000000000000000000000000000000000000000000000000000000008152600401610b3090613698565b60405180910390fd5b610b44838383611b88565b505050565b6000610b548361108b565b8210610b95576040517f08c379a0000000000000000000000000000000000000000000000000000000008152600401610b8c90613458565b60405180910390fd5b600760008473ffffffffffffffffffffffffffffffffffffffff1673ffffffffffffffffffffffffffffffffffffffff168152602001908152602001600020600083815260200190815260200160002054905092915050565b610bf66119b5565b73ffffffffffffffffffffffffffffffffffffffff16610c14611353565b73ffffffffffffffffffffffffffffffffffffffff1614610c6a576040517f08c379a0000000000000000000000000000000000000000000000000000000008152600401610c6190613618565b60405180910390fd5b6000610c74611353565b73ffffffffffffffffffffffffffffffffffffffff1647604051610c979061337d565b60006040518083038185875af1925050503d8060008114610cd4576040519150601f19603f3d011682016040523d82523d6000602084013e610cd9565b606091505b5050905080610ce757600080fd5b50565b610d0583838360405180602001604052806000815250611574565b505050565b610d126119b5565b73ffffffffffffffffffffffffffffffffffffffff16610d30611353565b73ffffffffffffffffffffffffffffffffffffffff1614610d86576040517f08c379a0000000000000000000000000000000000000000000000000000000008152600401610d7d90613618565b60405180910390fd5b60005b81811015610e19576000610dae6001610da0610adc565b611a7690919063ffffffff16565b90506103e8610dbb610adc565b1015610e0557610dcb8482611a8c565b7f0176f203df400d7bd5f1b1c9ef36c16709bf3b5d9fd35f000a6bae32393f66c38185604051610dfc9291906136f3565b60405180910390a15b508080610e11906139cd565b915050610d89565b505050565b6000610e28610adc565b8210610e69576040517f08c379a0000000000000000000000000000000000000000000000000000000008152600401610e60906136b8565b60405180910390fd5b60098281548110610ea3577f4e487b7100000000000000000000000000000000000000000000000000000000600052603260045260246000fd5b90600052602060002001549050919050565b610ebd6119b5565b73ffffffffffffffffffffffffffffffffffffffff16610edb611353565b73ffffffffffffffffffffffffffffffffffffffff1614610f31576040517f08c379a0000000000000000000000000000000000000000000000000000000008152600401610f2890613618565b60405180910390fd5b80600b9080519060200190610f47929190612ac5565b5050565b6000806002600084815260200190815260200160002060009054906101000a900473ffffffffffffffffffffffffffffffffffffffff169050600073ffffffffffffffffffffffffffffffffffffffff168173ffffffffffffffffffffffffffffffffffffffff161415610ff4576040517f08c379a0000000000000000000000000000000000000000000000000000000008152600401610feb90613598565b60405180910390fd5b80915050919050565b600b805461100a9061396a565b80601f01602080910402602001604051908101604052809291908181526020018280546110369061396a565b80156110835780601f1061105857610100808354040283529160200191611083565b820191906000526020600020905b81548152906001019060200180831161106657829003601f168201915b505050505081565b60008073ffffffffffffffffffffffffffffffffffffffff168273ffffffffffffffffffffffffffffffffffffffff1614156110fc576040517f08c379a00000000000000000000000000000000000000000000000000000000081526004016110f390613578565b60405180910390fd5b600360008373ffffffffffffffffffffffffffffffffffffffff1673ffffffffffffffffffffffffffffffffffffffff168152602001908152602001600020549050919050565b61114b6119b5565b73ffffffffffffffffffffffffffffffffffffffff16611169611353565b73ffffffffffffffffffffffffffffffffffffffff16146111bf576040517f08c379a00000000000000000000000000000000000000000000000000000000081526004016111b690613618565b60405180910390fd5b6111c96000611de4565b565b67016345785d8a000081565b606060006111e48361108b565b9050600081141561126757600067ffffffffffffffff811115611230577f4e487b7100000000000000000000000000000000000000000000000000000000600052604160045260246000fd5b60405190808252806020026020018201604052801561125e5781602001602082028036833780820191505090505b5091505061134e565b60008167ffffffffffffffff8111156112a9577f4e487b7100000000000000000000000000000000000000000000000000000000600052604160045260246000fd5b6040519080825280602002602001820160405280156112d75781602001602082028036833780820191505090505b50905060005b82811015611347576112ef8582610b49565b828281518110611328577f4e487b7100000000000000000000000000000000000000000000000000000000600052603260045260246000fd5b602002602001018181525050808061133f906139cd565b9150506112dd565b8193505050505b919050565b6000600660009054906101000a900473ffffffffffffffffffffffffffffffffffffffff16905090565b60606001805461138c9061396a565b80601f01602080910402602001604051908101604052809291908181526020018280546113b89061396a565b80156114055780601f106113da57610100808354040283529160200191611405565b820191906000526020600020905b8154815290600101906020018083116113e857829003601f168201915b5050505050905090565b61142161141a6119b5565b8383611eaa565b5050565b600c60009054906101000a900460ff16611474576040517f08c379a000000000000000000000000000000000000000000000000000000000815260040161146b906134d8565b60405180910390fd5b6103e86114926001611484610adc565b611a7690919063ffffffff16565b11156114d3576040517f08c379a00000000000000000000000000000000000000000000000000000000081526004016114ca906135b8565b60405180910390fd5b60006114de3361108b565b146114e857600080fd5b67016345785d8a00003410156114fd57600080fd5b600061151a600161150c610adc565b611a7690919063ffffffff16565b90506103e8611527610adc565b1015611571576115373382611a8c565b7f0176f203df400d7bd5f1b1c9ef36c16709bf3b5d9fd35f000a6bae32393f66c381336040516115689291906136f3565b60405180910390a15b50565b61158561157f6119b5565b83611aaa565b6115c4576040517f08c379a00000000000000000000000000000000000000000000000000000000081526004016115bb90613698565b60405180910390fd5b6115d084848484612017565b50505050565b60606115e182611949565b611620576040517f08c379a000000000000000000000000000000000000000000000000000000000815260040161161790613658565b60405180910390fd5b600061162a612073565b9050600081511161164a576040518060200160405280600081525061166b565b8060405160200161165b919061335b565b6040516020818303038152906040525b915050919050565b600061167d610adc565b905090565b61168a6119b5565b73ffffffffffffffffffffffffffffffffffffffff166116a8611353565b73ffffffffffffffffffffffffffffffffffffffff16146116fe576040517f08c379a00000000000000000000000000000000000000000000000000000000081526004016116f590613618565b60405180910390fd5b600c60009054906101000a900460ff1615600c60006101000a81548160ff021916908315150217905550565b6000600560008473ffffffffffffffffffffffffffffffffffffffff1673ffffffffffffffffffffffffffffffffffffffff16815260200190815260200160002060008373ffffffffffffffffffffffffffffffffffffffff1673ffffffffffffffffffffffffffffffffffffffff16815260200190815260200160002060009054906101000a900460ff16905092915050565b600c60009054906101000a900460ff1681565b6117d96119b5565b73ffffffffffffffffffffffffffffffffffffffff166117f7611353565b73ffffffffffffffffffffffffffffffffffffffff161461184d576040517f08c379a000000000000000000000000000000000000000000000000000000000815260040161184490613618565b60405180910390fd5b600073ffffffffffffffffffffffffffffffffffffffff168173ffffffffffffffffffffffffffffffffffffffff1614156118bd576040517f08c379a00000000000000000000000000000000000000000000000000000000081526004016118b490613498565b60405180910390fd5b6118c681611de4565b50565b6103e881565b60007f780e9d63000000000000000000000000000000000000000000000000000000007bffffffffffffffffffffffffffffffffffffffffffffffffffffffff1916827bffffffffffffffffffffffffffffffffffffffffffffffffffffffff19161480611942575061194182612105565b5b9050919050565b60008073ffffffffffffffffffffffffffffffffffffffff166002600084815260200190815260200160002060009054906101000a900473ffffffffffffffffffffffffffffffffffffffff1673ffffffffffffffffffffffffffffffffffffffff1614159050919050565b600033905090565b816004600083815260200190815260200160002060006101000a81548173ffffffffffffffffffffffffffffffffffffffff021916908373ffffffffffffffffffffffffffffffffffffffff160217905550808273ffffffffffffffffffffffffffffffffffffffff16611a3083610f4b565b73ffffffffffffffffffffffffffffffffffffffff167f8c5be1e5ebec7d5bd14f71427d1e84f3dd0314c0f7b2291e5b200ac8c7c3b92560405160405180910390a45050565b60008183611a84919061382a565b905092915050565b611aa68282604051806020016040528060008152506121e7565b5050565b6000611ab582611949565b611af4576040517f08c379a0000000000000000000000000000000000000000000000000000000008152600401611aeb90613538565b60405180910390fd5b6000611aff83610f4b565b90508073ffffffffffffffffffffffffffffffffffffffff168473ffffffffffffffffffffffffffffffffffffffff161480611b6e57508373ffffffffffffffffffffffffffffffffffffffff16611b5684610800565b73ffffffffffffffffffffffffffffffffffffffff16145b80611b7f5750611b7e818561172a565b5b91505092915050565b8273ffffffffffffffffffffffffffffffffffffffff16611ba882610f4b565b73ffffffffffffffffffffffffffffffffffffffff1614611bfe576040517f08c379a0000000000000000000000000000000000000000000000000000000008152600401611bf590613638565b60405180910390fd5b600073ffffffffffffffffffffffffffffffffffffffff168273ffffffffffffffffffffffffffffffffffffffff161415611c6e576040517f08c379a0000000000000000000000000000000000000000000000000000000008152600401611c65906134f8565b60405180910390fd5b611c79838383612242565b611c846000826119bd565b6001600360008573ffffffffffffffffffffffffffffffffffffffff1673ffffffffffffffffffffffffffffffffffffffff1681526020019081526020016000206000828254611cd49190613880565b925050819055506001600360008473ffffffffffffffffffffffffffffffffffffffff1673ffffffffffffffffffffffffffffffffffffffff1681526020019081526020016000206000828254611d2b919061382a565b92505081905550816002600083815260200190815260200160002060006101000a81548173ffffffffffffffffffffffffffffffffffffffff021916908373ffffffffffffffffffffffffffffffffffffffff160217905550808273ffffffffffffffffffffffffffffffffffffffff168473ffffffffffffffffffffffffffffffffffffffff167fddf252ad1be2c89b69c2b068fc378daa952ba7f163c4a11628f55a4df523b3ef60405160405180910390a4505050565b6000600660009054906101000a900473ffffffffffffffffffffffffffffffffffffffff16905081600660006101000a81548173ffffffffffffffffffffffffffffffffffffffff021916908373ffffffffffffffffffffffffffffffffffffffff1602179055508173ffffffffffffffffffffffffffffffffffffffff168173ffffffffffffffffffffffffffffffffffffffff167f8be0079c531659141344cd1fd0a4f28419497f9722a3daafe3b4186f6b6457e060405160405180910390a35050565b8173ffffffffffffffffffffffffffffffffffffffff168373ffffffffffffffffffffffffffffffffffffffff161415611f19576040517f08c379a0000000000000000000000000000000000000000000000000000000008152600401611f1090613518565b60405180910390fd5b80600560008573ffffffffffffffffffffffffffffffffffffffff1673ffffffffffffffffffffffffffffffffffffffff16815260200190815260200160002060008473ffffffffffffffffffffffffffffffffffffffff1673ffffffffffffffffffffffffffffffffffffffff16815260200190815260200160002060006101000a81548160ff0219169083151502179055508173ffffffffffffffffffffffffffffffffffffffff168373ffffffffffffffffffffffffffffffffffffffff167f17307eab39ab6107e8899845ad3d59bd9653f200f220920489ca2b5937696c318360405161200a919061341b565b60405180910390a3505050565b612022848484611b88565b61202e84848484612252565b61206d576040517f08c379a000000000000000000000000000000000000000000000000000000000815260040161206490613478565b60405180910390fd5b50505050565b6060600b80546120829061396a565b80601f01602080910402602001604051908101604052809291908181526020018280546120ae9061396a565b80156120fb5780601f106120d0576101008083540402835291602001916120fb565b820191906000526020600020905b8154815290600101906020018083116120de57829003601f168201915b5050505050905090565b60007f80ac58cd000000000000000000000000000000000000000000000000000000007bffffffffffffffffffffffffffffffffffffffffffffffffffffffff1916827bffffffffffffffffffffffffffffffffffffffffffffffffffffffff191614806121d057507f5b5e139f000000000000000000000000000000000000000000000000000000007bffffffffffffffffffffffffffffffffffffffffffffffffffffffff1916827bffffffffffffffffffffffffffffffffffffffffffffffffffffffff1916145b806121e057506121df826123e9565b5b9050919050565b6121f18383612453565b6121fe6000848484612252565b61223d576040517f08c379a000000000000000000000000000000000000000000000000000000000815260040161223490613478565b60405180910390fd5b505050565b61224d838383612621565b505050565b60006122738473ffffffffffffffffffffffffffffffffffffffff16612735565b156123dc578373ffffffffffffffffffffffffffffffffffffffff1663150b7a0261229c6119b5565b8786866040518563ffffffff1660e01b81526004016122be94939291906133ad565b602060405180830381600087803b1580156122d857600080fd5b505af192505050801561230957506040513d601f19601f820116820180604052508101906123069190612e71565b60015b61238c573d8060008114612339576040519150601f19603f3d011682016040523d82523d6000602084013e61233e565b606091505b50600081511415612384576040517f08c379a000000000000000000000000000000000000000000000000000000000815260040161237b90613478565b60405180910390fd5b805181602001fd5b63150b7a0260e01b7bffffffffffffffffffffffffffffffffffffffffffffffffffffffff1916817bffffffffffffffffffffffffffffffffffffffffffffffffffffffff1916149150506123e1565b600190505b949350505050565b60007f01ffc9a7000000000000000000000000000000000000000000000000000000007bffffffffffffffffffffffffffffffffffffffffffffffffffffffff1916827bffffffffffffffffffffffffffffffffffffffffffffffffffffffff1916149050919050565b600073ffffffffffffffffffffffffffffffffffffffff168273ffffffffffffffffffffffffffffffffffffffff1614156124c3576040517f08c379a00000000000000000000000000000000000000000000000000000000081526004016124ba906135d8565b60405180910390fd5b6124cc81611949565b1561250c576040517f08c379a0000000000000000000000000000000000000000000000000000000008152600401612503906134b8565b60405180910390fd5b61251860008383612242565b6001600360008473ffffffffffffffffffffffffffffffffffffffff1673ffffffffffffffffffffffffffffffffffffffff1681526020019081526020016000206000828254612568919061382a565b92505081905550816002600083815260200190815260200160002060006101000a81548173ffffffffffffffffffffffffffffffffffffffff021916908373ffffffffffffffffffffffffffffffffffffffff160217905550808273ffffffffffffffffffffffffffffffffffffffff16600073ffffffffffffffffffffffffffffffffffffffff167fddf252ad1be2c89b69c2b068fc378daa952ba7f163c4a11628f55a4df523b3ef60405160405180910390a45050565b61262c838383612748565b600073ffffffffffffffffffffffffffffffffffffffff168373ffffffffffffffffffffffffffffffffffffffff16141561266f5761266a8161274d565b6126ae565b8173ffffffffffffffffffffffffffffffffffffffff168373ffffffffffffffffffffffffffffffffffffffff16146126ad576126ac8382612796565b5b5b600073ffffffffffffffffffffffffffffffffffffffff168273ffffffffffffffffffffffffffffffffffffffff1614156126f1576126ec81612903565b612730565b8273ffffffffffffffffffffffffffffffffffffffff168273ffffffffffffffffffffffffffffffffffffffff161461272f5761272e8282612a46565b5b5b505050565b600080823b905060008111915050919050565b505050565b600980549050600a600083815260200190815260200160002081905550600981908060018154018082558091505060019003906000526020600020016000909190919091505550565b600060016127a38461108b565b6127ad9190613880565b9050600060086000848152602001908152602001600020549050818114612892576000600760008673ffffffffffffffffffffffffffffffffffffffff1673ffffffffffffffffffffffffffffffffffffffff168152602001908152602001600020600084815260200190815260200160002054905080600760008773ffffffffffffffffffffffffffffffffffffffff1673ffffffffffffffffffffffffffffffffffffffff168152602001908152602001600020600084815260200190815260200160002081905550816008600083815260200190815260200160002081905550505b6008600084815260200190815260200160002060009055600760008573ffffffffffffffffffffffffffffffffffffffff1673ffffffffffffffffffffffffffffffffffffffff16815260200190815260200160002060008381526020019081526020016000206000905550505050565b600060016009805490506129179190613880565b90506000600a600084815260200190815260200160002054905060006009838154811061296d577f4e487b7100000000000000000000000000000000000000000000000000000000600052603260045260246000fd5b9060005260206000200154905080600983815481106129b5577f4e487b7100000000000000000000000000000000000000000000000000000000600052603260045260246000fd5b906000526020600020018190555081600a600083815260200190815260200160002081905550600a6000858152602001908152602001600020600090556009805480612a2a577f4e487b7100000000000000000000000000000000000000000000000000000000600052603160045260246000fd5b6001900381819060005260206000200160009055905550505050565b6000612a518361108b565b905081600760008573ffffffffffffffffffffffffffffffffffffffff1673ffffffffffffffffffffffffffffffffffffffff168152602001908152602001600020600083815260200190815260200160002081905550806008600084815260200190815260200160002081905550505050565b828054612ad19061396a565b90600052602060002090601f016020900481019282612af35760008555612b3a565b82601f10612b0c57805160ff1916838001178555612b3a565b82800160010185558215612b3a579182015b82811115612b39578251825591602001919060010190612b1e565b5b509050612b479190612b4b565b5090565b5b80821115612b64576000816000905550600101612b4c565b5090565b6000612b7b612b7684613741565b61371c565b905082815260208101848484011115612b9357600080fd5b612b9e848285613928565b509392505050565b6000612bb9612bb484613772565b61371c565b905082815260208101848484011115612bd157600080fd5b612bdc848285613928565b509392505050565b600081359050612bf381614074565b92915050565b600081359050612c088161408b565b92915050565b600081359050612c1d816140a2565b92915050565b600081519050612c32816140a2565b92915050565b600082601f830112612c4957600080fd5b8135612c59848260208601612b68565b91505092915050565b600082601f830112612c7357600080fd5b8135612c83848260208601612ba6565b91505092915050565b600081359050612c9b816140b9565b92915050565b600060208284031215612cb357600080fd5b6000612cc184828501612be4565b91505092915050565b60008060408385031215612cdd57600080fd5b6000612ceb85828601612be4565b9250506020612cfc85828601612be4565b9150509250929050565b600080600060608486031215612d1b57600080fd5b6000612d2986828701612be4565b9350506020612d3a86828701612be4565b9250506040612d4b86828701612c8c565b9150509250925092565b60008060008060808587031215612d6b57600080fd5b6000612d7987828801612be4565b9450506020612d8a87828801612be4565b9350506040612d9b87828801612c8c565b925050606085013567ffffffffffffffff811115612db857600080fd5b612dc487828801612c38565b91505092959194509250565b60008060408385031215612de357600080fd5b6000612df185828601612be4565b9250506020612e0285828601612bf9565b9150509250929050565b60008060408385031215612e1f57600080fd5b6000612e2d85828601612be4565b9250506020612e3e85828601612c8c565b9150509250929050565b600060208284031215612e5a57600080fd5b6000612e6884828501612c0e565b91505092915050565b600060208284031215612e8357600080fd5b6000612e9184828501612c23565b91505092915050565b600060208284031215612eac57600080fd5b600082013567ffffffffffffffff811115612ec657600080fd5b612ed284828501612c62565b91505092915050565b600060208284031215612eed57600080fd5b6000612efb84828501612c8c565b91505092915050565b6000612f10838361333d565b60208301905092915050565b612f25816138b4565b82525050565b6000612f36826137b3565b612f4081856137e1565b9350612f4b836137a3565b8060005b83811015612f7c578151612f638882612f04565b9750612f6e836137d4565b925050600181019050612f4f565b5085935050505092915050565b612f92816138c6565b82525050565b6000612fa3826137be565b612fad81856137f2565b9350612fbd818560208601613937565b612fc681613aa3565b840191505092915050565b6000612fdc826137c9565b612fe6818561380e565b9350612ff6818560208601613937565b612fff81613aa3565b840191505092915050565b6000613015826137c9565b61301f818561381f565b935061302f818560208601613937565b80840191505092915050565b600061304860018361381f565b915061305382613ab4565b600182019050919050565b600061306b602b8361380e565b915061307682613add565b604082019050919050565b600061308e60328361380e565b915061309982613b2c565b604082019050919050565b60006130b160268361380e565b91506130bc82613b7b565b604082019050919050565b60006130d4601c8361380e565b91506130df82613bca565b602082019050919050565b60006130f760218361380e565b915061310282613bf3565b604082019050919050565b600061311a60248361380e565b915061312582613c42565b604082019050919050565b600061313d60198361380e565b915061314882613c91565b602082019050919050565b6000613160602c8361380e565b915061316b82613cba565b604082019050919050565b600061318360388361380e565b915061318e82613d09565b604082019050919050565b60006131a6602a8361380e565b91506131b182613d58565b604082019050919050565b60006131c960298361380e565b91506131d482613da7565b604082019050919050565b60006131ec602a8361380e565b91506131f782613df6565b604082019050919050565b600061320f60208361380e565b915061321a82613e45565b602082019050919050565b6000613232602c8361380e565b915061323d82613e6e565b604082019050919050565b600061325560208361380e565b915061326082613ebd565b602082019050919050565b600061327860298361380e565b915061328382613ee6565b604082019050919050565b600061329b602f8361380e565b91506132a682613f35565b604082019050919050565b60006132be60218361380e565b91506132c982613f84565b604082019050919050565b60006132e1600083613803565b91506132ec82613fd3565b600082019050919050565b600061330460318361380e565b915061330f82613fd6565b604082019050919050565b6000613327602c8361380e565b915061333282614025565b604082019050919050565b6133468161391e565b82525050565b6133558161391e565b82525050565b6000613367828461300a565b91506133728261303b565b915081905092915050565b6000613388826132d4565b9150819050919050565b60006020820190506133a76000830184612f1c565b92915050565b60006080820190506133c26000830187612f1c565b6133cf6020830186612f1c565b6133dc604083018561334c565b81810360608301526133ee8184612f98565b905095945050505050565b600060208201905081810360008301526134138184612f2b565b905092915050565b60006020820190506134306000830184612f89565b92915050565b600060208201905081810360008301526134508184612fd1565b905092915050565b600060208201905081810360008301526134718161305e565b9050919050565b6000602082019050818103600083015261349181613081565b9050919050565b600060208201905081810360008301526134b1816130a4565b9050919050565b600060208201905081810360008301526134d1816130c7565b9050919050565b600060208201905081810360008301526134f1816130ea565b9050919050565b600060208201905081810360008301526135118161310d565b9050919050565b6000602082019050818103600083015261353181613130565b9050919050565b6000602082019050818103600083015261355181613153565b9050919050565b6000602082019050818103600083015261357181613176565b9050919050565b6000602082019050818103600083015261359181613199565b9050919050565b600060208201905081810360008301526135b1816131bc565b9050919050565b600060208201905081810360008301526135d1816131df565b9050919050565b600060208201905081810360008301526135f181613202565b9050919050565b6000602082019050818103600083015261361181613225565b9050919050565b6000602082019050818103600083015261363181613248565b9050919050565b600060208201905081810360008301526136518161326b565b9050919050565b600060208201905081810360008301526136718161328e565b9050919050565b60006020820190508181036000830152613691816132b1565b9050919050565b600060208201905081810360008301526136b1816132f7565b9050919050565b600060208201905081810360008301526136d18161331a565b9050919050565b60006020820190506136ed600083018461334c565b92915050565b6000604082019050613708600083018561334c565b6137156020830184612f1c565b9392505050565b6000613726613737565b9050613732828261399c565b919050565b6000604051905090565b600067ffffffffffffffff82111561375c5761375b613a74565b5b61376582613aa3565b9050602081019050919050565b600067ffffffffffffffff82111561378d5761378c613a74565b5b61379682613aa3565b9050602081019050919050565b6000819050602082019050919050565b600081519050919050565b600081519050919050565b600081519050919050565b6000602082019050919050565b600082825260208201905092915050565b600082825260208201905092915050565b600081905092915050565b600082825260208201905092915050565b600081905092915050565b60006138358261391e565b91506138408361391e565b9250827fffffffffffffffffffffffffffffffffffffffffffffffffffffffffffffffff0382111561387557613874613a16565b5b828201905092915050565b600061388b8261391e565b91506138968361391e565b9250828210156138a9576138a8613a16565b5b828203905092915050565b60006138bf826138fe565b9050919050565b60008115159050919050565b60007fffffffff0000000000000000000000000000000000000000000000000000000082169050919050565b600073ffffffffffffffffffffffffffffffffffffffff82169050919050565b6000819050919050565b82818337600083830152505050565b60005b8381101561395557808201518184015260208101905061393a565b83811115613964576000848401525b50505050565b6000600282049050600182168061398257607f821691505b6020821081141561399657613995613a45565b5b50919050565b6139a582613aa3565b810181811067ffffffffffffffff821117156139c4576139c3613a74565b5b80604052505050565b60006139d88261391e565b91507fffffffffffffffffffffffffffffffffffffffffffffffffffffffffffffffff821415613a0b57613a0a613a16565b5b600182019050919050565b7f4e487b7100000000000000000000000000000000000000000000000000000000600052601160045260246000fd5b7f4e487b7100000000000000000000000000000000000000000000000000000000600052602260045260246000fd5b7f4e487b7100000000000000000000000000000000000000000000000000000000600052604160045260246000fd5b6000601f19601f8301169050919050565b7f3000000000000000000000000000000000000000000000000000000000000000600082015250565b7f455243373231456e756d657261626c653a206f776e657220696e646578206f7560008201527f74206f6620626f756e6473000000000000000000000000000000000000000000602082015250565b7f4552433732313a207472616e7366657220746f206e6f6e20455243373231526560008201527f63656976657220696d706c656d656e7465720000000000000000000000000000602082015250565b7f4f776e61626c653a206e6577206f776e657220697320746865207a65726f206160008201527f6464726573730000000000000000000000000000000000000000000000000000602082015250565b7f4552433732313a20746f6b656e20616c7265616479206d696e74656400000000600082015250565b7f53616c65206d7573742062652061637469766520746f206d696e7420546f6b6560008201527f6e00000000000000000000000000000000000000000000000000000000000000602082015250565b7f4552433732313a207472616e7366657220746f20746865207a65726f2061646460008201527f7265737300000000000000000000000000000000000000000000000000000000602082015250565b7f4552433732313a20617070726f766520746f2063616c6c657200000000000000600082015250565b7f4552433732313a206f70657261746f7220717565727920666f72206e6f6e657860008201527f697374656e7420746f6b656e0000000000000000000000000000000000000000602082015250565b7f4552433732313a20617070726f76652063616c6c6572206973206e6f74206f7760008201527f6e6572206e6f7220617070726f76656420666f7220616c6c0000000000000000602082015250565b7f4552433732313a2062616c616e636520717565727920666f7220746865207a6560008201527f726f206164647265737300000000000000000000000000000000000000000000602082015250565b7f4552433732313a206f776e657220717565727920666f72206e6f6e657869737460008201527f656e7420746f6b656e0000000000000000000000000000000000000000000000602082015250565b7f507572636861736520776f756c6420657863656564206d617820737570706c7960008201527f206f6620746f6b656e7300000000000000000000000000000000000000000000602082015250565b7f4552433732313a206d696e7420746f20746865207a65726f2061646472657373600082015250565b7f4552433732313a20617070726f76656420717565727920666f72206e6f6e657860008201527f697374656e7420746f6b656e0000000000000000000000000000000000000000602082015250565b7f4f776e61626c653a2063616c6c6572206973206e6f7420746865206f776e6572600082015250565b7f4552433732313a207472616e73666572206f6620746f6b656e2074686174206960008201527f73206e6f74206f776e0000000000000000000000000000000000000000000000602082015250565b7f4552433732314d657461646174613a2055524920717565727920666f72206e6f60008201527f6e6578697374656e7420746f6b656e0000000000000000000000000000000000602082015250565b7f4552433732313a20617070726f76616c20746f2063757272656e74206f776e6560008201527f7200000000000000000000000000000000000000000000000000000000000000602082015250565b50565b7f4552433732313a207472616e736665722063616c6c6572206973206e6f74206f60008201527f776e6572206e6f7220617070726f766564000000000000000000000000000000602082015250565b7f455243373231456e756d657261626c653a20676c6f62616c20696e646578206f60008201527f7574206f6620626f756e64730000000000000000000000000000000000000000602082015250565b61407d816138b4565b811461408857600080fd5b50565b614094816138c6565b811461409f57600080fd5b50565b6140ab816138d2565b81146140b657600080fd5b50565b6140c28161391e565b81146140cd57600080fd5b5056fea26469706673582212201de0bda31ad3bfcefb2424aaae01124c4d13e1355bed9c3dbc68b8cda8b2fcd364736f6c6343000804003368747470733a2f2f676174657761792e70696e6174612e636c6f75642f697066732f516d5a48743754664e486b677268316a7376745256756e7674716666356e3153566a466f533762626979526369792f",
  "linkReferences": {},
  "deployedLinkReferences": {}
}